22042014145501SG2BFE1 2204201411111111                          Betsy's Corp001Test                                                                                                                         11111111                          23212BatchRef0000000020                 C                                                                                                                                                                                                                                                                                                                                                                                                                                                                                                                                                                                                                                                                                                                                               01
30BatchReference0000000020           DBSSSGS0XXX                        3520000470                        3520000470AccName                                                                                                                           SUPPSGD00000001000Reference001                       PaymentDetailsTest000001                                                                                                                    N                                                                                                                                                                                                                                                                                                                                                                                                                                                                                                                                                                              10
0000000000000000000000000000000000000001000000000000001000                          24088893700                                                                                                                                                                                                                                                                                                                                                                                                                                                                                                                                                                                                                                                                                                                                                                                                                                                                                                                                       20
