22042014145501SG2BFE1 220420140010390406                        Betsy's Corp001Test                                                                                                                         0010390406                        23212BatchRef0000000020                 C                                                                                                                                                                                                                                                                                                                                                                                                                                                                                                                                                                                                                                                                                                                                               01
30BatchReference0000000020           DBSSSGS0XXX                        3520000470                        3520000470AccName                                                                                                                           SUPPSGD00000001000Reference001                       PaymentDetailsTest000001                                                                                                                    N                                                                                                                                                                                                                                                                                                                                                                                                                                                                                                                                                                              10
0000000000000000000000000000000000000001000000000000001000                          35096100640                                                                                                                                                                                                                                                                                                                                                                                                                                                                                                                                                                                                                                                                                                                                                                                                                                                                                                                                       20
