24012023145501SG2BFE1 2401202322222222                          Betsy's Corp001Test                                                                                                                         22222222                          00013                                   C                                                                                                                                                                                                                                                                                                                                                                                                                                                                                                                                                                                                                                                                                                                                               01
22BatchReference0000000013           DBSSSGS0XXX                        3520000470                        3520000470AccName                                                                                                                           SUPPSGD00000001000                                   PaymentDetailsTest000001                                                                                                                    N                                                                                                                                                                                                                                                                                                                                                                                                                                                                                                                                                                              10
0000000000100000000000000100000000000000000000000000000000                          12977782700                                                                                                                                                                                                                                                                                                                                                                                                                                                                                                                                                                                                                                                                                                                                                                                                                                                                                                                                       20
