BOF      0108040116202281003649990250           0000000000000000ABC000000000000000000000000000000000000000000000000000000000000000000000000000000000000000000000000000000000000000000000000000000000000000000000000000000000000000000000000000000003334343
NSC499523456  810036410042100451     0040037341111111111aaaa111       00BTWAUTO01  ASDF11                   000000  mandateDetail       freeTextAreaforSend                     Passbook1 88288432SS                                                      
NSC49952114101810036410042100451     0040037341111111111aaaa111       00BTWAUTO01  ASDF11                           mandateDetail       freeTextAreaforSendPassbookfreeTextAreaforSendP12 888  BBFFDBBFFDD         RemarksremarksRemarksremarksRemarksrema
NSC49952114202810036410042100451     0040037341111111111aaaa111       00BTWAUTO01  ASDF111111Storc1                 mandateDetail       freeTextAreaforSend Passbook                      88838SSSSS                                                      
NSC49952114303810036410042100451     0040037341111111111aaaa111       00BTWAUTO01  ASDF111111                       mandateDetail       freeTextAreaforSend Passbook                      88848HHNNN                                                      
EOF      0108040181003649990250       4444             RemarksremarksRemarksremarksRemarksremaRemarksremarksRemarksremarksRemarksremaRemarksremarksRemarksremarksRemarksremaRemarksremarksRemarksremarksRemarksremaksremarksRemarksremaRemarksrema22222223