BOF      0108040116202281003649990250           0000000000000000ABC000000000000000000000000000000000000000000000000000000000000000000000000000000000000000000000000000000000000000000000000000000000000000000000000000000000000000000000000000000003334343
NSD506523456  810036460686156488     0040037341111111111aaaa111       00BSPTW09    ASDF11                   000000  mandateDetail       freeTextAreaforSend                     Passbook1 88288432SS                                                      
NSD50652114101810036460686156488     0040037341111111111aaaa111       00BSPTW09    ASDF11                           mandateDetail       freeTextAreaforSendPassbookfreeTextAreaforSendP12 888  BBFFDBBFFDD         RemarksremarksRemarksremarksRemarksrema
NSD50652114202810036460686156488     0040037341111111111aaaa111       00BSPTW09    ASDF111111Storc1                 mandateDetail       freeTextAreaforSend Passbook                      88838SSSSS                                                      
NSD50652114303810036460686156488     0040037341111111111aaaa111       00BSPTW09    ASDF111111                       mandateDetail       freeTextAreaforSend Passbook                      88848HHNNN                                                      
EOF      0108040181003649990250       4444             RemarksremarksRemarksremarksRemarksremaRemarksremarksRemarksremarksRemarksremaRemarksremarksRemarksremarksRemarksremaRemarksremarksRemarksremarksRemarksremaksremarksRemarksremaRemarksrema22222223