BOF      0108040116202281003649990250           0000000000000000ABC000000000000000000000000000000000000000000000000000000000000000000000000000000000000000000000000000000000000000000000000000000000000000000000000000000000000000000000000000000003334343
NSC201523456  81003640019001941      0040037341111111111aaaa111       00BSPTW08    ASDF11                   000000  mandateDetail       freeTextAreaforSend                     Passbook1 88288432SS                                                      
NSC2015211410181003640019001941      0040037341111111111aaaa111       00BSPTW08    ASDF11                           mandateDetail       freeTextAreaforSendPassbookfreeTextAreaforSendP12 888  BBFFDBBFFDD         RemarksremarksRemarksremarksRemarksrema
NSC2015211420281003640019001941      0040037341111111111aaaa111       00BSPTW08    ASDF111111Storc1                 mandateDetail       freeTextAreaforSend Passbook                      88838SSSSS                                                      
NSC2015211430381003640019001941      0040037341111111111aaaa111       00BSPTW08    ASDF111111                       mandateDetail       freeTextAreaforSend Passbook                      88848HHNNN                                                      
EOF      0108040181003649990250       4444             RemarksremarksRemarksremarksRemarksremaRemarksremarksRemarksremarksRemarksremaRemarksremarksRemarksremarksRemarksremaRemarksremarksRemarksremarksRemarksremaksremarksRemarksremaRemarksrema22222223